{
  "contractName": "ApprovalContract",
  "abi": [
    {
      "inputs": [],
      "name": "approver",
      "outputs": [
        {
          "internalType": "address",
          "name": "",
          "type": "address"
        }
      ],
      "stateMutability": "view",
      "type": "function",
      "constant": true
    },
    {
      "inputs": [],
      "name": "receiver",
      "outputs": [
        {
          "internalType": "address",
          "name": "",
          "type": "address"
        }
      ],
      "stateMutability": "view",
      "type": "function",
      "constant": true
    },
    {
      "inputs": [],
      "name": "sender",
      "outputs": [
        {
          "internalType": "address",
          "name": "",
          "type": "address"
        }
      ],
      "stateMutability": "view",
      "type": "function",
      "constant": true
    },
    {
      "inputs": [
        {
          "internalType": "address",
          "name": "_receiver",
          "type": "address"
        }
      ],
      "name": "deposit",
      "outputs": [],
      "stateMutability": "payable",
      "type": "function",
      "payable": true
    },
    {
      "inputs": [],
      "name": "viewApprover",
      "outputs": [
        {
          "internalType": "address",
          "name": "",
          "type": "address"
        }
      ],
      "stateMutability": "pure",
      "type": "function",
      "constant": true
    },
    {
      "inputs": [],
      "name": "approve",
      "outputs": [],
      "stateMutability": "nonpayable",
      "type": "function"
    }
  ],
  "bytecode": "0x608060405234801561001057600080fd5b506103e6806100206000396000f3fe6080604052600436106100555760003560e01c806312424e3f1461005a578063141a8dd81461007157806367e404ce1461009c578063d93ce89c146100c7578063f340fa01146100f2578063f7260d3e1461010e575b600080fd5b34801561006657600080fd5b5061006f610139565b005b34801561007d57600080fd5b506100866101f0565b604051610093919061034c565b60405180910390f35b3480156100a857600080fd5b506100b1610208565b6040516100be919061034c565b60405180910390f35b3480156100d357600080fd5b506100dc61022c565b6040516100e9919061034c565b60405180910390f35b61010c60048036038101906101079190610314565b610248565b005b34801561011a57600080fd5b506101236102d9565b604051610130919061034c565b60405180910390f35b731f18703b0ba7730bfd37fe96f5cc9becfa0096a873ffffffffffffffffffffffffffffffffffffffff163373ffffffffffffffffffffffffffffffffffffffff161461018557600080fd5b600160009054906101000a900473ffffffffffffffffffffffffffffffffffffffff1673ffffffffffffffffffffffffffffffffffffffff166108fc479081150290604051600060405180830381858888f193505050501580156101ed573d6000803e3d6000fd5b50565b731f18703b0ba7730bfd37fe96f5cc9becfa0096a881565b60008054906101000a900473ffffffffffffffffffffffffffffffffffffffff1681565b6000731f18703b0ba7730bfd37fe96f5cc9becfa0096a8905090565b6000341161025557600080fd5b336000806101000a81548173ffffffffffffffffffffffffffffffffffffffff021916908373ffffffffffffffffffffffffffffffffffffffff16021790555080600160006101000a81548173ffffffffffffffffffffffffffffffffffffffff021916908373ffffffffffffffffffffffffffffffffffffffff16021790555050565b600160009054906101000a900473ffffffffffffffffffffffffffffffffffffffff1681565b60008135905061030e81610399565b92915050565b60006020828403121561032657600080fd5b6000610334848285016102ff565b91505092915050565b61034681610367565b82525050565b6000602082019050610361600083018461033d565b92915050565b600061037282610379565b9050919050565b600073ffffffffffffffffffffffffffffffffffffffff82169050919050565b6103a281610367565b81146103ad57600080fd5b5056fea2646970667358221220e06529344046b4387f51296f41d486382ddf01fb14767f3192d72f2292f008a564736f6c63430008040033",
  "immutableReferences": {},
  "source": "// SPDX-License-Identifier: MIT\npragma solidity 0.8.4;\n\ncontract ApprovalContract {\n\n    address public sender;\n    address public receiver;\n    address public constant approver = 0x1F18703B0ba7730BFD37fe96F5cC9bEcFa0096A8;\n\n    function deposit(address _receiver) external payable {\n        require(msg.value > 0);\n        sender = msg.sender;\n        receiver = _receiver;\n    }\n\n    function viewApprover() external pure returns(address) {\n        return(approver);\n    }\n\n    function approve() external {\n        require(msg.sender == approver);\n        payable(receiver).transfer(address(this).balance);\n    }\n}",
  "sourcePath": "/home/marco/Documents/programming/js/Blockchain/MetaCoin/contracts/ApprovalContract.sol",
  "compiler": {
    "name": "solc",
    "version": "0.8.4+commit.c7e474f2.Emscripten.clang"
  },
  "schemaVersion": "3.3.4",
  "updatedAt": "2021-05-11T11:46:12.561Z",
  "networkType": "ethereum",
  "devdoc": {
    "kind": "dev",
    "methods": {},
    "version": 1
  },
  "userdoc": {
    "kind": "user",
    "methods": {},
    "version": 1
  }
}